:020000004D2889
:1000080080318B1C082809280A288B102000111C15
:100018000E280F284B2818107B0897002A089600EE
:1000280018140130FC007C08F6070E307602031C19
:100038001E281F284928F601F81C232824283528BB
:10004800F81A272828282E288E100E118C128E12A6
:10005800F81649288E140E158C168E16F812492893
:100068004928F81D382839283C2802308E063E28B1
:100078008E148E16781D41284228452804308E0695
:1000880049280E158C164928492811104B2891012A
:1000980009008801DB2C8431B224803120008C16C1
:1000A8008E160E158E148B123C30AD002D08FB00F9
:1000B800B130AD002D08AA005230A4000330A500CD
:1000C800EF30A2000330A300FE30A0000330A100EF
:1000D8002C30A6000130A7006C30A8000230A9001F
:1000E800F811F81078107812F8127A28F901FA0144
:1000F80009307A02C43003197902031C8428852840
:100108008728952895280130F9070030FA3D0930ED
:100118007A02C43003197902031C9328942887288B
:100128009528913021009D00F70106307702031CC5
:100138009E289F28A128AC28AC2801302000AD00BB
:100148002D08F70706307702031CAB28AC28A12836
:1001580021009D14B028000021009D18B428B5285E
:10016800AF28B6281C082000AD002D08F10021009A
:100178001B082000AD002D08F0007108F501F507F7
:100188007008F401F407023075027730031974021D
:10019800031CCF28D028E12802307502A9300319A2
:1001A80074020318D828D928E128EF30A2000330B8
:1001B800A300FE30A0000330A100013075022C30EE
:1001C80003197402031CE928EA28FC280130750287
:1001D8005F30031974020318F228F328FC28EF3063
:1001E800A2000330A300FA30A0000330A100FC28CD
:1001F8008E19FF28002987290E1A0329042987291F
:10020800F8143C30AD002D08FB00B130AD002D08CE
:10021800AA008E1C1029112916290E19142915292E
:100228007A281629F901FA0100307A026430031994
:100238007902031C20292129232931293129013058
:10024800F9070030FA3D00307A0264300319790268
:10025800031C2F293029232931298D3021009D00A5
:10026800F70106307702031C3A293B293D29482922
:10027800482901302000AD002D08F7070630770225
:10028800031C472948293D2921009D144C290000B9
:1002980021009D18502951294B2952291C0820005A
:1002A800AD002D08F10021001B082000AD002D082D
:1002B800F0007108F501F5077008F401F4077508F6
:1002C800F301F3077408F201F20725087302031D0E
:1002D8006F29240872020318722973297A2878165C
:1002E8008E148E160E158C16F6017A298E197D2914
:1002F8007E297A280E1E812982297A297A287A2845
:100308007A287A287A28F8108E198B298C29192BA3
:10031800F8158E1890299129152B8E12F901FA01DA
:1003280000307A02643003197902031C9C299D2944
:100338009F29AD29AD290130F9070030FA3D003079
:100348007A02643003197902031CAB29AC299F296E
:10035800AD298D3021009D00F70106307702031C7E
:10036800B629B729B929C429C42901302000AD000C
:100378002D08F70706307702031CC329C429B929B9
:1003880021009D14C829000021009D18CC29CD29E1
:10039800C729CE291C082000AD002D08F100210036
:1003A8001B082000AD002D08F0007108F501F507C5
:1003B8007008F401F4077508F301F3077408F201F3
:1003C800F20725087302031DEB292408720203189B
:1003D800EE29EF29FA2978168E148E16F601F429DB
:1003E8008E1DF729F829F429FA29FA29F901FA01C1
:1003F80030307A02D43003197902031C042A052A02
:10040800072A152A152A0130F9070030FA3D30303D
:100418007A02D43003197902031C132A142A072AF2
:10042800152A913021009D00F70106307702031C40
:100438001E2A1F2A212A2C2A2C2A01302000AD002E
:100448002D08F70706307702031C2B2A2C2A212AAD
:1004580021009D14302A000021009D18342A352AD5
:100468002F2A362A1C082000AD002D08F100210093
:100478001B082000AD002D08F0007108F501F507F4
:100488007008F401F4078D3021009D00F701063053
:100498007702031C502A512A532A5E2A5E2A013009
:1004A8002000AD002D08F70706307702031C5D2AEF
:1004B8005E2A532A21009D14622A000021009D18FB
:1004C800662A672A612A682A1C082000AD002D08C0
:1004D800F10021001B082000AD002D08F000710874
:1004E800F501F5077008F401F4077508F301F3073F
:1004F8007408F201F207893021009D00F7010630E7
:100508007702031C882A892A8B2A962A962A013080
:100518002000AD002D08F70706307702031C952A46
:10052800962A8B2A21009D149A2A000021009D18E2
:100538009E2A9F2A992AA02A1C082000AD002D086F
:10054800F10021001B082000AD002D08F000710803
:10055800F501F5077008F401F4077508AC01AC075C
:100568007408AB01AB0773082502031DBD2A720886
:1005780024020318C02AC12AE82A73082302031D8B
:10058800C72A72082202031CCA2ACB2ADE2A2C0890
:100598002102031DD12A2B082002031CD42AD52AA4
:1005A800DE2A3C30AD002D08FB00B130AD002D082F
:1005B800AA00F42A9E30AD002D08FB005830AD008B
:1005C8002D08AA00F42AF42A78168E148E16F6013D
:1005D800ED2A8E1DF02AF12AED2AF42AF42AF42AAB
:1005E8008E1CF72AF82AF42A8E16F901FA0113301C
:1005F8007A02883003197902031C032B042B062B7B
:100608001A2B1A2B0130F9070030FA3D13307A0201
:10061800883003197902031C122B132B062B1A2B73
:100628001A2B8E148E161A2B1A2BF81120000E1A5C
:100638001E2B1F2BAC2C78150E19232B242BA82C22
:100648008C12F901FA0100307A0264300319790238
:10065800031C2F2B302B322B402B402B0130F9075A
:100668000030FA3D00307A02643003197902031C25
:100678003E2B3F2B322B402B8D3021009D00F70164
:1006880006307702031C492B4A2B4C2B572B572B30
:1006980001302000AD002D08F70706307702031C53
:1006A800562B572B4C2B21009D145B2B000021004F
:1006B8009D185F2B602B5A2B612B1C082000AD0066
:1006C8002D08F10021001B082000AD002D08F000C6
:1006D8007108F501F5077008F401F4077508F301CE
:1006E800F3077408F201F20725087302031D7E2B35
:1006F800240872020318812B822B8D2B78160E1575
:100708008C16F601872B0E1E8A2B8B2B872B8D2B95
:100718008D2BF901FA0130307A02D43003197902AD
:10072800031C972B982B9A2BA82BA82B0130F90781
:100738000030FA3D30307A02D43003197902031CB4
:10074800A62BA72B9A2BA82B913021009D00F701EF
:1007580006307702031CB12BB22BB42BBF2BBF2B57
:1007680001302000AD002D08F70706307702031C82
:10077800BE2BBF2BB42B21009D14C32B00002100DE
:100788009D18C72BC82BC22BC92B1C082000AD00F5
:100798002D08F10021001B082000AD002D08F000F5
:1007A8007108F501F5077008F401F4078D30210090
:1007B8009D00F70106307702031CE32BE42BE62BA0
:1007C800F12BF12B01302000AD002D08F707063082
:1007D8007702031CF02BF12BE62B21009D14F52B3F
:1007E800000021009D18F92BFA2BF42BFB2B1C0879
:1007F8002000AD002D08F10021001B082000AD00ED
:100808002D08F0007108F501F5077008F401F407E8
:100818007508F301F3077408F201F2078930210023
:100828009D00F70106307702031C1B2C1C2C1E2C84
:10083800292C292C01302000AD002D08F70706309F
:100848007702031C282C292C1E2C21009D142D2CEA
:10085800000021009D18312C322C2C2C332C1C0824
:100868002000AD002D08F10021001B082000AD007C
:100878002D08F0007108F501F5077008F401F40778
:100888007508AC01AC077408AB01AB077308250207
:10089800031D502C720824020318532C542C7B2C53
:1008A80073082302031D5A2C72082202031C5D2CB4
:1008B8005E2C712C2C082102031D642C2B082002AD
:1008C800031C672C682C712C3C30AD002D08FB00F4
:1008D800B130AD002D08AA00872C9E30AD002D0840
:1008E800FB005830AD002D08AA00872C872C7816FD
:1008F8000E158C16F601802C0E1E832C842C802C51
:10090800872C872C872C0E1D8A2C8B2C872C8C16D9
:10091800F901FA0113307A02883003197902031CAD
:10092800962C972C992C7A287A280130F9070030D0
:10093800FA3D13307A02883003197902031CA52C7A
:10094800A62C992C7A287A280E158C167A287A28BB
:1009580078117A287A287A287A284D287330210045
:100968009900D0309E00143023008C0001308E0096
:10097800220091019201930194011C3021008C0006
:1009880019308E003C3020009700B13096000530B9
:100998009800910101302100910020001814803046
:1009A8002100950040308B008B128B170800F8014E
:1009B800F001F101F201F301F401F501F601F7018B
:0809C800AB01AC0120004F2837
:020000040001F9
:02000E0004DA12
:00000001FF
